:100000000C9453000C94C5020C94C5020C94C502C8
:100010000C94C5020C94C5020C94C5020C94C50244
:100020000C94C5020C94C5020C94C5020C94E70014
:100030000C94C5020C94C5020C94C5020C94C50224
:100040000C94C5020C94C5020C94C5020C94C50214
:100050000C94C50258015C01600140016401680113
:100060006C0140014001400140014001400140015C
:100070004001400140014001400140014001400178
:100080004001400140014001400140014001400168
:1000900040014001400140014001700140017401F4
:1000A00000600065800011241FBECFE5D8E0DEBFF0
:1000B000CDBFE0EAF0E040E017C0B591A5913591E1
:1000C0002591059107FD0CC095918591EF01F92FC0
:1000D000E82F05900D92A217B307D9F7FE0104C0CF
:1000E0001D92A217B307E1F7E53AF40731F70E9432
:0A00F00034010C948402F894FFCF51
:1000FA000FC00E94A00238F00E94A70220F09523A8
:10010A0011F00C94AE020C94C20211240C949A02BF
:10011A000E94110270F3959FC1F3950F50E0551F8D
:10012A00629FF001729FBB27F00DB11D639FAA2742
:10013A00F00DB11DAA1F649F6627B00DA11D661F91
:10014A00829F2227B00DA11D621F739FB00DA11DB2
:10015A00621F839FA00D611D221F749F3327A00D6C
:10016A00611D231F849F600D211D822F762F6A2F08
:10017A0011249F5750409AF0F1F088234AF0EE0F6D
:10018A00FF1FBB1F661F771F881F91505040A9F79A
:10019A009E3F510580F00C94AE020C949A025F3F88
:1001AA00E4F3983ED4F3869577956795B795F795D6
:1001BA00E7959F5FC1F7FE2B880F911D969587954E
:0401CA0097F9089504
:1001CE001F920F920FB60F9211242F933F934F93BE
:1001DE005F936F937F938F939F93AF93BF93EF93A1
:1001EE00FF93809164008F5F8093640080E00E9493
:1001FE0076020E94780120E030E040E05FE30E944A
:10020E00BE020E94B5019B01709361006093600075
:10021E0080916400833080F01092640080916200BF
:10022E00909163008217930720F485B3886085BB95
:10023E0003C085B3877F85BBFF91EF91BF91AF91CF
:10024E009F918F917F916F915F914F913F912F91E0
:0A025E000F900FBE0F901F9018952F
:100268000E94660260E875E280E090E00E94E40186
:100278000E948F028FEF84BB0E94BA02E82F82EFA0
:100288008E0F863130F4F0E0F0936300E093620063
:10029800F3CF8E2F90E0FC01F197E632F10560F77D
:1002A800E65DFF4F0C94B40285B3816085BBE4CF53
:1002B80085B3826085BBE0CF85B3846085BBDCCF26
:1002C80085B38E7F85BBD8CF85B38D7F85BBD4CFD3
:1002D80085B38B7F85BBD0CF85B3806185BBCCCF01
:0802E80085B38F7E85BBC8CFF2
:1002F000E89409C097FB3EF49095809570956195C0
:100300007F4F8F4F9F4F9923A9F0F92F96E9BB2775
:100310009395F695879577956795B795F111F8CFF1
:10032000FAF4BB0F11F460FF1BC06F5F7F4F8F4F5C
:100330009F4F16C0882311F096E911C0772321F052
:100340009EE8872F762F05C0662371F096E8862FEA
:1003500070E060E02AF09A95660F771F881FDAF741
:0A036000880F9695879597F9089588
:10036A000E94190288F09F5798F0B92F9927B75120
:10037A00B0F0E1F0660F771F881F991F1AF0BA953F
:10038A00C9F714C0B13091F00E949902B1E0089502
:10039A000C949902672F782F8827B85F39F0B93FF4
:1003AA00CCF3869577956795B395D9F73EF49095F2
:0E03BA008095709561957F4F8F4F9F4F0895EE
:1003C8002AB128602AB92AB120612AB920B5206843
:1003D80020BD20B5226020BD20B5246020BDDC01F1
:1003E800CB01880F991FAA1FBB1F880F991FAA1F2F
:1003F800BB1F9C01AD01220F331F441F551F220F45
:10040800331F441F551F60E072E18AE790E00E94A5
:0A0418003302215029B910BC0895E9
:1004220057FD9058440F551F59F05F3F71F04795A3
:10043200880F97FB991F61F09F3F79F08795089588
:10044200121613061406551FF2CF4695F1DF08C0A7
:10045200161617061806991FF1CF869571056105C4
:04046200089408955D
:10046600A1E21A2EAA1BBB1BFD010DC0AA1FBB1FB2
:10047600EE1FFF1FA217B307E407F50720F0A21B24
:10048600B30BE40BF50B661F771F881F991F1A9491
:1004960069F760957095809590959B01AC01BD01BB
:0404A600CF010895E5
:1004AA00092E0394000C11F4882352F0BB0F40F478
:1004BA00BF2B11F460FF04C06F5F7F4F8F4F9F4FB8
:0204CA00089593
:1004CC0086B1806886B987B1806487B986B181604E
:1004DC0086B986B1826086B986B1846086B9089582
:1004EC0097B18F70982B97B986B1806486B9349B7D
:0C04FC00FECF64B175B180E090E008957F
:10050800EC010E94CA020E94C902CE010E94CB02DD
:06051800CE010E94C702A3
:10051E0083B7856083BF81E082BF789489B781609D
:04052E0089BF0895E4
:0E053200E894BB2766277727CB0197F9089539
:0E05400000240A9416161706180609060895D8
:0E054E0000240A9412161306140605060895DA
:0C055C0097F99F6780E870E060E0089568
:0C056800EE0FFF1F0590F491E02D0994A8
:080574005F9BFECF8CB10895DE
:08057C000E947D000C94550261
:060584009FEF80EC0895DA
:04058A000C940000CD
:04058E000E947B004C
:020592000895CA
:020594000895C8
:020596000895C6
:00000001FF
