:100000000C9442000C945F090C94EC140C94EC14C6
:100010000C94EC140C94EC140C94EC140C94EC1460
:100020000C94EC140C94EC140C94EC140C947D11C2
:100030000C94EC140C94EC140C94EC140C94EC1440
:100040000C94EC140C94EC140C94EC140C94EC1430
:100050000C94EC1400600062800062007A0029E6D3
:10006000007A008A80008A00940029FE009400959E
:10007000800095009600024B00960097002A080029
:100080009700998011241FBECFE5D8E0DEBFCDBF19
:10009000E4E5F0E040E017C0B591A59135912591D8
:1000A000059107FD0CC095918591EF01F92FE82F7F
:1000B00005900D92A217B307D9F7FE0104C01D9257
:1000C000A217B307E1F7E438F40731F70E942601DD
:0800D0000C94B114F894FFCF69
:1000D8002E2E2E526573657474696E672E2E2E004F
:1000E80030300020313A20414D2020323A20504D06
:1000F80000496E76616C696420696E70757400538E
:1001080074617274696E672E2E2E002020202000E4
:10011800323120536570742E203230323300456EF0
:100128007465722050617373776F7264203A00436C
:100138006F72726563742050617373776F72642194
:10014800004163636573732044656E696564005993
:100158006F75204861766520202074726965730088
:10016800596F752048617665204265656E00626C3E
:100178006F636B656420666F72200057656C636FF0
:100188006D65205573657200313A526F6F6D31207D
:10019800323A526F6F6D3200333A526F6F6D3320BF
:1001A800343A4D6F72650043686F6F7365204D6F09
:1001B80064653A00312D4F4E2020322D4F464600BF
:1001C800313A414300323A545600333A5265747515
:1001D800726E00343A4D6F72650053657420546531
:1001E8006D702E203D205F5F20430053617665646B
:1001F800202100313A4C6F636B53637265656E0062
:10020800323A52657475726E00496E76616C696433
:0D02180020496E70757400414D00504D007E
:1002250068076C094C836A9074A07AC0008068885E
:0602350000846C820081D0
:07023B00286E756C6C2900B0
:06024200286E696C290022
:030248002564002A
:01024B000CA6
:10024C00CF93DF93CDB7DEB768970FB6F894DEBFC8
:10025C000FBECDBF82B3806282BB81B3806481BB91
:10026C0088E0E2E7F0E0DE01519601900D928A956C
:10027C00E1F781B3806881BB0E942C140E94E014CA
:10028C000E94BC140E94621460E875E280E090E069
:10029C000E94EC126894FF24F2F882B38F7782BB31
:1002AC002FEF30E782E0215030408040E1F700C072
:1002BC00000081E00E9404149FEF20E732E091508F
:1002CC0020403040E1F700C00000809195008A305A
:1002DC0040F465E081E00E94701480E30E941814E1
:1002EC0004C065E081E00E9470148091950090E05C
:1002FC000E94BD128AE30E941814809196008A30E5
:10030C0040F468E081E00E94701480E30E941814AD
:10031C0004C068E081E00E9470148091960090E027
:10032C000E94BD128AE30E941814809197008A30B3
:10033C0040F46BE081E00E94701480E30E9418147A
:10034C0004C06BE081E00E9470148091970090E0F3
:10035C000E94BD1261E081E00E94701463E171E0C3
:10036C0080E00E9419136DE081E00E94701480E21D
:10037C000E9418148FE79EE30197F1F700C000006C
:10038C006FE081E00E9470148091940090E0FC0179
:10039C00EE0FFF1F8E0F9F1FFC01E657FF4F608172
:1003AC00718182810E94191361E082E00E947014B5
:1003BC0068E171E080E00E941913859986CF859BD6
:1003CC00FECFD12C61C39FEF20E732E0915020404B
:1003DC003040E1F700C0000081E00E9404148FEF70
:1003EC0090E722E0815090402040E1F700C00000EF
:1003FC00EAC066E271E080E00E94191361E082E0DD
:10040C000E94701400E010E019C00E943510F80131
:10041C00EE0FFF1FEE0FFF1F21E030E02C0F3D1FF2
:10042C00E20FF31F90E0A0E0B0E080839183A28301
:10043C00B3838AE20E9418140F5F1F4F043011051A
:10044C0024F364E0CE0101960E948B12009190007F
:10045C0010919100209192003091930060177107D8
:10046C0082079307F1F481E00E9404143FEF84E3C8
:10047C009CE0315080409040E1F700C0000067E301
:10048C0071E080E00E94191382B3806882BB2FEF69
:10049C0034E38CE0215030408040E1F700C0000094
:1004AC0094C081E00E9404149FEF24E33CE091503F
:1004BC0020403040E1F700C0000069E471E080E0CA
:1004CC000E9419138FEF94E32CE081509040204050
:1004DC00E1F700C00000FA9481E00E9404143FEFA1
:1004EC0084E39CE0315080409040E1F700C0000074
:1004FC0067E571E080E00E9419136AE081E00E94D8
:10050C0070148F2D90E00E94BD122FEF39E688E118
:10051C00215030408040E1F700C0000081E00E9493
:10052C0004149FEF24E33CE0915020403040E1F76D
:10053C0000C00000F11047C068E671E080E00E9446
:10054C00191361E082E00E94701466E771E080E0AC
:10055C000E9419131AE023C01A3060F46EE082E096
:10056C000E94701480E20E9418146DE082E00E94D8
:10057C00701404C06DE082E00E947014812F90E032
:10058C000E94BD1282B3806482BB8FEF99E628E192
:10059C00815090402040E1F700C0000011501F3FF7
:1005AC00D9F682B38F7B82BB81E00E9404143FEFAB
:1005BC0084E39CE0315080409040E1F700C00000A3
:1005CC006894FF24F2F8F11014CF81E00E94041417
:1005DC002FEF34E38CE0215030408040E1F700C035
:1005EC00000063E871E080E00E9419139FEF29E698
:1005FC0038E1915020403040E1F700C0000081E02C
:10060C000E9404148FEF94E32CE081509040204022
:10061C00E1F700C0000081E00E9404143FEF80E786
:10062C0092E0315080409040E1F700C0000081E042
:10063C000E9404142FEF30E782E0215030408040BC
:10064C00E1F700C0000060E971E080E00E9419133E
:10065C0061E082E00E94701460EA71E080E00E9428
:10066C0019130E943510823009F451C018F48130EE
:10067C0041F0E1C1833009F490C0843009F4D3C057
:10068C00DAC19FEF20E732E0915020403040E1F793
:10069C0000C0000081E00E9404148FEF90E722E07C
:1006AC00815090402040E1F700C000006FEA71E0FB
:1006BC0080E00E94191361E082E00E9470146CEBE0
:1006CC0071E080E00E9419130E943510813021F4F2
:1006DC0081E30E94E51405C0823019F485E30E9481
:1006EC00E5143FEF80E792E0315080409040E1F715
:1006FC0000C0000081E00E9404142FEF30E782E07C
:10070C00215030408040E1F700C00000BAC19FEF9B
:10071C0020E732E0915020403040E1F700C000006B
:10072C0081E00E9404148FEF90E722E0815090400A
:10073C002040E1F700C000006FEA71E080E00E9409
:10074C00191361E082E00E9470146CEB71E080E0A0
:10075C000E9419130E943510813021F482E30E940B
:10076C00E51405C0823019F486E30E94E5143FEFCE
:10077C0080E792E0315080409040E1F700C00000EB
:10078C0081E00E9404142FEF30E782E021503040CA
:10079C008040E1F700C0000074C19FEF20E732E019
:1007AC00915020403040E1F700C0000081E00E94F1
:1007BC0004148FEF90E722E0815090402040E1F745
:1007CC0000C000006FEA71E080E00E94191361E044
:1007DC0082E00E9470146CEB71E080E00E941913AF
:1007EC000E943510813021F483E30E94E51405C08A
:1007FC00823019F487E30E94E5143FEF80E792E022
:10080C00315080409040E1F700C0000081E00E9430
:10081C0004142FEF30E782E0215030408040E1F7A4
:10082C0000C000002EC1E12C81E00E9404149FEF57
:10083C0020E732E0915020403040E1F700C000004A
:10084C0081E0D81609F41DC168EC71E080E00E94CB
:10085C0019136CE081E00E9470146DEC71E080E083
:10086C000E94191361E082E00E94701462ED71E045
:10087C0080E00E9419136BE082E00E9470146BED13
:10088C0071E080E00E9419130E943510823009F447
:10089C0061C018F4813041F0CAC0833009F4C5C07E
:1008AC00843009F489C0C3C081E00E9404149FEF16
:1008BC0020E732E0915020403040E1F700C00000CA
:1008CC0062EE71E080E00E9419136DE081E00E94FD
:1008DC00701400E010E018C00E94351090E0A0E009
:1008EC00B0E0F801EE0FFF1FEE0FFF1F21E030E02C
:1008FC002C0F3D1FE20FF31F808B918BA28BB38BC0
:10090C000E94BD120F5F1F4F023011052CF362E0E5
:10091C00CE0141960E948B12862F0E94E51481E035
:10092C000E9404143FEF80E792E0315080409040E9
:10093C00E1F700C0000063EF71E080E00E94191342
:10094C002FEF34E38CE0215030408040E1F700C0C1
:10095C0000006DC09FEF20E732E091502040304006
:10096C00E1F700C0000081E00E9404148FEF90E7D3
:10097C0022E0815090402040E1F700C000006FEA77
:10098C0071E080E00E94191361E082E00E94701413
:10099C006CEB71E080E00E9419130E9435108130DD
:1009AC0021F484E50E94E51442C0823009F03FC076
:1009BC0086E50E94E5143BC010E03FEF80E792E033
:1009CC00315080409040E1F700C0000081E00E946F
:1009DC0004142FEF30E782E0215030408040E1F7E3
:1009EC0000C0000091E0D91611F161E081E00E9495
:1009FC0070146BEF71E080E00E94191361E082E0EB
:100A0C000E94701468E072E080E00E9419130E944A
:100A1C003510813019F0823029F403C0DD24D394D1
:100A2C0001C011E0113049F602C0EE24E39421E03C
:100A3C00E212FACE26C081E00E9404143FEF80E758
:100A4C0092E0315080409040E1F700C0000061E13D
:100A5C0072E080E00E9419132FEF34E38CE02150F8
:100A6C0030408040E1F700C0000081E00E94041497
:100A7C009FEF20E732E0915020403040E1F700C07A
:100A8C00000081E0D812C7CD91E0D9129CCC05CCE6
:100A9C00A3EAB0E0E4E5F5E00C949F134C01590196
:100AAC00C756DF4F488359836A83C959D040212CDC
:100ABC00312C6E012BE8C20ED11C85E2782E26015A
:100ACC0030E8632ECE018D569F4FC456DF4F99836D
:100ADC008883CC59D0409C0140E8CF55DF4F288308
:100AEC0039834A83C15AD040C756DF4F4881C95910
:100AFC00D040C656DF4F5881CA59D040C556DF4F3B
:100B0C006881CB59D040FA01849167FD808188239C
:100B1C0009F4C9C3CF57DF4F19821882C158D0408E
:100B2C008FEF9FEFCD57DF4F99838883C358D04009
:100B3C00CB57DF4F19821882C558D040A1E0B0E0E6
:100B4C00AC0FBD1FC957DF4FB983A883C758D0401E
:100B5C00E0E8F0E0C757DF4FF983E883C958D0408D
:100B6C00CA01A62FE12CF12CFC012491A7FD2081B8
:100B7C0021111BC0E114F10401F19701C4010E9481
:100B8C005712C756DF4F88819981AA81C959D04025
:100B9C008E0D9F1DA11DF7FCAA95C756DF4F8883AC
:100BAC009983AA83C959D04008C00196A11D25324A
:100BBC0009F3FFEFEF1AFF0AD7CFC756DF4F888133
:100BCC009981AA81C959D040FC012491A7FD2081AB
:100BDC00253209F056C39C014A2F2F5F3F4F4F4FD0
:100BEC00C256DF4F288339834A83CE59D040C7562B
:100BFC00DF4F288339834A83C959D040C756DF4F0A
:100C0C0088819981AA81C959D040FC012491A7FD02
:100C1C0020812B3241F4CF57DF4F28813981C158C5
:100C2C00D04024600BC02C32CCF02D3259F5CF576C
:100C3C00DF4F28813981C158D0402160CF57DF4F19
:100C4C0039832883C158D0400196A11DC756DF4F68
:100C5C0088839983AA83C959D040D0CF203241F4DC
:100C6C00CF57DF4F28813981C158D0402860E6CF5B
:100C7C00233291F4CF57DF4F28813981C158D040AE
:100C8C002061DCCF203341F4CF57DF4F28813981ED
:100C9C00C158D0402260D2CF2A3299F50196A11DBD
:100CAC00C756DF4F88839983AA83C959D040D50191
:100CBC00ED91FC911197CF0102968D939C938081BD
:100CCC009181CB57DF4F99838883C558D04097FFCC
:100CDC003EC0CF57DF4F28813981C158D040B1E099
:100CEC002B27CF57DF4F39832883C158D04091959C
:100CFC0081959109CB57DF4F99838883C558D04094
:100D0C0026C0BC018A2F0E940F12CB57DF4F99834C
:100D1C008883C558D040C756DF4F288139814A8116
:100D2C00C959D040F901849147FD8081082E000CEF
:100D3C00990BC0970A9758F42F5F3F4F4F4FC756E8
:100D4C00DF4F288339834A83C959D040E4CFCF572A
:100D5C00DF4F88819981C158D04080FF07C08D7FBB
:100D6C00CF57DF4F99838883C158D040C756DF4F88
:100D7C0088819981AA81C959D040FC012491A7FD91
:100D8C0020812E3209F058C0CD57DF4F19821882BE
:100D9C00C358D0409C014A2F2F5F3F4F4F4FC7562F
:100DAC00DF4F288339834A83C959D040F9015491C4
:100DBC0047FD50815A32D1F40296A11DC756DF4F20
:100DCC0088839983AA83C959D040D501ED91FC91B0
:100DDC001197CF0102968D939C9380819181CD5771
:100DEC00DF4F99838883C358D04026C0842FB90124
:100DFC000E940F12CD57DF4F99838883C358D04080
:100E0C00C756DF4F288139814A81C959D040F90131
:100E1C00849147FD8081082E000C990BC0970A978E
:100E2C0058F42F5F3F4F4F4FC756DF4F28833983FE
:100E3C004A83C959D040E4CFCE0187569F4F0E94B8
:100E4C002E11182FC756DF4F2881C959D040C656CE
:100E5C00DF4F8881CA59D040C556DF4F9881CB5996
:100E6C00D040E22FF82F849197FD8081082E000C42
:100E7C00990B0E94D8148936910509F45AC0B4F420
:100E8C008336910509F466C144F48532910509F461
:100E9C00A1C18136910529F1B3C18436910509F4BC
:100EAC0048C0883691050CF42DC1AAC18037910534
:100EBC0009F4CBC04CF48E36910509F419C18F3668
:100ECC00910509F47CC09CC18537910509F454C087
:100EDC008837910509F496C08337910509F090C1C4
:100EEC0058C1612F70E0A501C6010E946113892BC6
:100EFC0009F4B7C1C756DF4F88819981AA81C959B6
:100F0C00D0409C014A2F2F5F3F4F4F4FC756DF4FAA
:100F1C00288339834A83C959D040FC012491A7FD09
:100F2C002081A601BE016F577F4FC4010E94E914B6
:100F3C0095C1612F70E0950141E050E0C6010E941F
:100F4C00BD0C892B09F48DC1C756DF4F888199815F
:100F5C00AA81C959D0400196A11DC756DF4F88837D
:100F6C009983AA83C959D040A601BE016F577F4F00
:100F7C00C4010E94FE0B72C1612F70E0950140E02C
:100F8C0050E0C6010E94BD0C892B09F46AC1C756FA
:100F9C00DF4F88819981AA81C959D0400196A11D42
:100FAC00C756DF4F88839983AA83C959D040A601BD
:100FBC00BE016F577F4FC4010E94DD0F4FC1612FDF
:100FCC0070E0950140E050E0C6010E94BD0C892BF9
:100FDC0009F447C1C756DF4F88819981AA81C95945
:100FEC00D0400196A11DC756DF4F88839983AA83F1
:100FFC00C959D040A601BE016F577F4FC4010E9452
:10100C000E0F2CC1612F70E0950140E050E0C6013D
:10101C000E94BD0C892B09F424C1C756DF4F88816F
:10102C009981AA81C959D0409C014A2F2F5F3F4F0B
:10103C004F4FC756DF4F288339834A83C959D04055
:10104C00FC012491A7FD20814BC0950140E050E0AC
:10105C0060EF70E0C6010E94BD0C892B09F401C140
:10106C00C756DF4F88819981AA81C959D040019612
:10107C00A11DC756DF4F88839983AA83C959D040D5
:10108C0086E022E432E040E0F901DE01AD56BF4FCC
:10109C00742F0E948C14D6012C9111963C911197AF
:1010AC0012964C91129713965C91139714966C911F
:1010BC00149715967C91159716968C9116971796F2
:1010CC009C91A0E00E94A51451F400E010E0CF55D3
:1010DC00DF4F288139814A81C15AD040B9C028E7F5
:1010EC00A601BE016F577F4FC4010E94BE0AB6C055
:1010FC00612F70E09501A1014E0D5F1DC6010E948C
:10110C00A20EAFC0612F70E0A501C6010E94611351
:10111C00892B09F4A6C0C756DF4F88819981AA8113
:10112C00C959D0409C014A2F2F5F3F4F4F4FC75694
:10113C00DF4F288339834A83C959D040FC0124915D
:10114C00A7FD2081A601BE016F577F4FC4010E94ED
:10115C00E91484C0103809F084C0C756DF4F888169
:10116C009981AA81C959D0400196A11DC756DF4F5C
:10117C0088839983AA83C959D040D501ED91FC91FC
:10118C001197CF0102968D939C938081F6018083F9
:10119C005BC0103809F065C0C756DF4F8881998154
:1011AC00AA81C959D0400196A11DC756DF4F88832B
:1011BC009983AA83C959D040D501ED91FC9111971F
:1011CC00CF0103968D939C9320813181428100E065
:1011DC0010E03EC0103809F044C0C756DF4F88817C
:1011EC009981AA81C959D0400196A11DC756DF4FDC
:1011FC0088839983AA83C959D040F601708224C090
:10120C00D6017C92C256DF4F288139814A81CE5952
:10121C00D040C756DF4F288339834A83C959D04001
:10122C00CF57DF4F19821882C158D040CB57DF4FB0
:10123C0019821882C558D0408FEF9FEFCD57DF4FE2
:10124C0099838883C358D04001E010E0462D920169
:10125C00BE016F577F4FC4010E94780F8E0D9F1DEA
:10126C0011C0C756DF4F88819981AA81C959D040D6
:10127C000196A11DC756DF4F88839983AA83C9594C
:10128C00D040C7017101E80EF91EE214F3044CF4CE
:10129C008FE490E090936100809360008FEF9FEF5C
:1012AC0003C0170121CCC101CD55DF4FE2E10C94F5
:0212BC00BB1362
:1012BE001F920F920FB60F9211242F933F934F93BD
:1012CE005F936F937F938F939F93AF93BF93CF93C0
:1012DE00DF93EF93FF9381E00E9404142FE78AE1DE
:1012EE0096E0215080409040E1F700C0000068ED8C
:1012FE0070E080E00E9419132FE78AE196E02150FA
:10130E0080409040E1F700C0000081E00E9404148C
:10131E002FE78AE196E0215080409040E1F700C02F
:10132E00000068EE70E080E00E9419138AE30E94CC
:10133E00181468EE70E080E00E94191361E081E0FD
:10134E000E947014C0E0D0E03DC02097E1F40E94EE
:10135E00351090E0A0E0B0E0FE01EE0FFF1FEE0FA3
:10136E00FF1FE658FF4F80839183A283B3830E94B1
:10137E00BD122FEF81EE94E0215080409040E1F7B6
:10138E0000C000001EC0C130D105D9F40E94351036
:10139E0090E0A0E0B0E0FE01EE0FFF1FEE0FFF1F8A
:1013AE00E658FF4F80839183A283B3830E94BD12C0
:1013BE002FEF81EE94E0215080409040E1F700C085
:1013CE0000002196C230D1050CF4BFCF64E081E05D
:1013DE000E947014C0E0D0E03DC02097E1F40E945E
:1013EE00351090E0A0E0B0E0FE01EE0FFF1FEE0F13
:1013FE00FF1FEE57FF4F80839183A283B3830E941A
:10140E00BD122FEF81EE94E0215080409040E1F725
:10141E0000C000001EC0C130D105D9F40E943510A5
:10142E0090E0A0E0B0E0FE01EE0FFF1FEE0FFF1FF9
:10143E00EE57FF4F80839183A283B3830E94BD1228
:10144E002FEF81EE94E0215080409040E1F700C0F4
:10145E0000002196C230D1050CF4BFCF62E08AE7BE
:10146E0090E00E948B126093950062E082E890E01B
:10147E000E948B1260939600809195008D3028F01B
:10148E00809195008C5080939500809196008C33BE
:10149E0010F010929600109297002FE789EA93E0D1
:1014AE00215080409040E1F700C0000081E00E9492
:1014BE0004146BEE70E080E00E9419130E94351048
:1014CE00813019F41092940022C00E94351082309F
:1014DE0021F481E0809394001AC081E00E940414EC
:1014EE002FE78AE196E0215080409040E1F700C05E
:1014FE00000069EF70E080E00E9419132FEF84E383
:10150E009CE0215080409040E1F700C0000081E057
:10151E000E9404142FE78AE196E02150804090400B
:10152E00E1F700C0000067E071E080E00E9419134F
:10153E002FEF84E39CE0215080409040E1F700C003
:10154E00000081E00E940414FF91EF91DF91CF9192
:10155E00BF91AF919F918F917F916F915F914F91BD
:0E156E003F912F910F900FBE0F901F90189578
:10157C00A4E1B0E0E4ECFAE00C949F1398878F831D
:10158C007A8369835C8B4B8B122FDB011296ED9166
:10159C00FC91139714962D913C9115973E832D83B6
:1015AC00ED90FC90119716962D903C901797F7FDA7
:1015BC0003C0E894E1F802C0E1E0F0E0C7018071FB
:1015CC0099279A878987E4FE1FC0AB89BC892C9127
:1015DC0011963C91119712964C91129713965C911F
:1015EC00139714966C91149715967C9115971696E3
:1015FC008C91169717969C91A0E00E94A51421F04F
:10160C008D819E81029702C08D819E8197012870E9
:10161C0033273C872B87E3FC0197AB89BC894C9023
:10162C0011965C90119712966C90129713967C9071
:10163C00139714968C90149715969C901597169654
:10164C00AC9016971796BC90A981BA811896CD903C
:10165C00DC901997B1E0CB1AD108D101AC0DBD1DAE
:10166C001C929C838B839F01281B390B3E872D87F3
:10167C00C70182709927988B8F87812F012E000CC0
:10168C00990BDC01A154B109BA8BA98B32E0C316BA
:10169C00D10434F489859A85892B09F04CC073C028
:1016AC009201A301B401C501A0E00E94A51481F12F
:1016BC00B1E0CB1AD108C2018F7099278A309105FD
:1016CC0014F4C09602C0895A9F4FE989FA897A9717
:1016DC0048F49C012062215631092A31310510F45D
:1016EC000E94CF14F101EC0DFD1D80832B813C81F8
:1016FC00215031093C832B839201A301B401C50114
:10170C0004E00E94831329013A014B015C01BECF16
:10171C008D859E85AB81BC818A0F9B1F181619067F
:10172C003CF21A161B060CF0B5CFEF85F889EF2B9F
:10173C0009F0BECFAFCFAB89BC892C9111963C91EF
:10174C00119712964C91129713965C9113971496CD
:10175C006C91149715967C91159716968C911697FB
:10176C0017969C91A0E00E94A51469F0F101EC0D74
:10177C00FD1D31971083B2E0CB1AD108F101EC0DAD
:10178C00FD1D80E38083EB85FC85EF2B41F0F1E0C0
:10179C00CF1AD108F101EC0DFD1D80E28083A981E7
:1017AC00BA8118962D913C911997215031092C1919
:1017BC003D09C20CD31CA60160E80D811E818F81EE
:1017CC0098850E941B0E9C01EF81F8858081918188
:1017DC0090FF09C0A981BA8112968D919C911397A3
:1017EC00821793070CF4C9016496E2E10C94BB13C5
:1017FC00ADE0B0E0E4E0FCE00C949F139A8789879D
:10180C007C836B83FA01DB011296CD90DC901397ED
:10181C0014968D919C9115979E838D83ED90FC90E1
:10182C001197FA82E98216960D90BC91A02DB8877B
:10183C00AF832080318042805380648075808680A5
:10184C0097808101B42DF52DE62D7B868C869D86A7
:10185C009101A201B301C401A0E00E94A5144CF4B3
:10186C000E9452148901B42FF52FE62F7B878C87A9
:10187C009D87D7FC04C0E894E1F8FA82E9829101D3
:10188C00A201B301C401A0E0ED80FE800E94A5146A
:10189C001CF0898182FF04C081E0E81AF10805C0C0
:1018AC0083FF03C091E0E91AF108CE0101965C01B7
:1018BC008AE0C82ED12C2B2F3F2F4E2F5B856C85A9
:1018CC007D858B819C810E94760DFC019101A2018A
:1018DC00B301C401A0E00E94A5141CF0898182FF11
:1018EC0012C031970F8118850E0F1F1F9101A20195
:1018FC00B301C401A0E00E94A51414F08BE201C056
:10190C008DE2D80108C083FF07C03197AF81B8853D
:10191C00AE0FBF1F80E28C93E980FA80AB81BC8153
:10192C0018962D913C911997215031092E1B3F0B84
:10193C008F819885E80FF91FAF0160E80D811E813A
:10194C0089859A850E941B0E9C01A985BA858D916B
:10195C009C9190FF07C0EB81FC818281938182175F
:0E196C0093070CF4C9012D96E2E10C94BB1315
:10197A000F931F93CF93DF93FC01D9016838710548
:10198A0031F194F461387105B1F12CF460387105C4
:10199A0009F478C09FC06238710509F459C06438E7
:1019AA00710509F46FC096C0603A710509F448C020
:1019BA002CF46039710509F44BC08CC0603C710588
:1019CA0009F476C0603F710509F472C083C0CD91F5
:1019DA00DC911197CE0102968D939C93452B39F099
:1019EA009881892F880F880B908381835BC08881B7
:1019FA008083118268C0CD91DC911197CE01049643
:101A0A008D939C93452B99F088819981AA81BB81FA
:101A1A00AC01BD01770F440B542FBA018083918327
:101A2A00A283B383448345834683478328C00881BE
:101A3A0019812A813B81008311832283338345C024
:101A4A00CD91DC911197CE0102968D939C9323C080
:101A5A00CD91DC911197CE0108968D939C93788154
:101A6A0069815A814B813C812D819E818F8170834E
:101A7A00618352834383348325839683878381E0FA
:101A8A0090E02AC0CD91DC911197CE0102968D93F8
:101A9A009C93452BA1F099812881892F880F880B67
:101AAA002083918382838383848385838683E6CF9D
:101ABA00CD91DC911197CE0102968D939C9308816A
:101ACA00198100831183128213821482158216826D
:101ADA001782D5CF80E090E0DF91CF911F910F91CF
:021AEA0008955D
:101AEC00A2E1B0E0ECE7FDE00C949F13FC010A8B43
:101AFC001B832C83732E642E552E462E7D83CC8611
:101B0C00D886BF82AE82868197819B878A87D501D2
:101B1C004D915C91228133818085918501971C01C7
:101B2C0037FF02C021E030E0EA85FB85E80FF91FA2
:101B3C0010824701E1E0F0E0FA83E983C9018E19D4
:101B4C009F099E878D87DA01A270BB27B88BAF8760
:101B5C00B885BB0FBB0BB98B1214130474F0A9819D
:101B6C00BA81AB2B09F05CC0AE81BF818D919C9189
:101B7C0011978F7E8D939C9353C02A893B814C8106
:101B8C00572D662D752D842D9D81A0E00E94A514E6
:101B9C00B1F1E1E02E1A3108FC85F987AF2EB8843B
:101BAC00C988DC2CEC2CFC2C0C2D1C2D2A893B819F
:101BBC004C81572D662D752D842D9D810E947E1490
:101BCC00C90129839A83EA85FB85E20DF31D805DAB
:101BDC00808381E0881A91082A893B814C81572D9A
:101BEC00662D752D842D9D810E9480142A8B3B833C
:101BFC004C83752E662E572E482E9D83ADCF8D852A
:101C0C009E85880D991D181619061CF218141904B6
:101C1C000CF0A5CFEF85F889EF2B09F0BACF9FCF49
:0A1C2C00C1016296E2E10C94BB13C3
:101C36002F923F924F926F927F928F92AF92BF9266
:101C4600CF92DF92EF92FF920F931F93CF93DF9382
:101C5600CDB7DEB766970FB6F894DEBF0FBECDBF21
:101C66005C013A01862E6901C701817099279C8B18
:101C76008B8BE0FC1DC020173107D4F47801EC18DB
:101C8600FD08FE8AED8AA70191E1E916F10410F03C
:101C960040E150E060E270E0CE0101969A8B898BBC
:101CA6000E94C61489899A891C0120E8422E0BC01D
:101CB6009601682DA301C5010E945712C016D106D0
:101CC600ECF2C60125C090E1E916F10458F020E1D6
:101CD60030E0642DA101C5010E94571280E1E81A87
:101CE600F108F1CF2D893E892F70332789899A898A
:101CF600AC0160E8C5010E9457128B899C89892B2B
:101D060031F49601682DA301C5010E945712C8013E
:101D160066960FB6F894DEBF0FBECDBFDF91CF91AA
:101D26001F910F91FF90EF90DF90CF90BF90AF90F3
:0E1D36008F907F906F904F903F902F90089568
:101D4400CF93DF93DC01F90164387105D9F164F4B0
:101D54006138710521F16238710509F440C06038B9
:101D6400710509F054C02EC060397105C1F184F4C5
:101D74006838710509F04BC0C081D181CE0102964B
:101D840091838083E881F981ED93FC9340833CC087
:101D9400603A7105B9F0603C7105A1F038C0C081AA
:101DA400D181CE01029691838083E881F981ED93FC
:101DB400FC93052E000C660B770B408351836283E2
:101DC400738322C0C081D181CE0102969183808326
:101DD400E881F981ED93FC935183408315C0C08160
:101DE400D181CE01029691838083E881F981ED93BC
:101DF400FC9351834083852F880F880B82838383D0
:101E0400848385838683878381E090E002C080E0B9
:081E140090E0DF91CF910895E9
:101E1C00A2E0B0E0E4E1FFE00C949F131C014B0145
:101E2C00FA01DB0112962D913C91139714964D906B
:101E3C005C9015978D919C9111979A838983169636
:101E4C006D907C90179737FD03C08D7F9A838983A3
:101E5C000081118122813381448155816681778192
:101E6C00FE0131965F0188E0C82ED12C7201C401AD
:101E7C000E94760D298124FF06C00197F301E80F1B
:101E8C00F91F20E32083298123FF06C00197F3016A
:101E9C00E80FF91F20E22083E980FA80D40118961C
:101EAC002D913C91199721503109281B390B860D26
:101EBC00971DAC0160E88201C1010E941B0E9C01C0
:101ECC00F1018081918190FF08C0D40112968D910F
:101EDC009C911397821793070CF4C9012296E2E1A7
:041EEC000C94BB1384
:101EF0002F923F924F926F927F928F92AF92BF92AA
:101F0000CF92DF92EF92FF920F931F93CF93DF93C5
:101F1000CDB7DEB727970FB6F894DEBF0FBECDBFA3
:101F20006C017B013901842E98018BE3282E82E01D
:101F3000382E80E0482E87E0F101AE014F5F5F4F01
:101F4000DA01742D0E948C14F70102811381A480A0
:101F5000B580E080F18061147104810419F43A01C4
:101F6000F0E88F2E2115310529F4882DB3010E9448
:101F7000EE139C0117FD04C00217130708F4980123
:101F80008501682DA301C6010E941B0E27960FB67E
:101F9000F894DEBF0FBECDBFDF91CF911F910F919F
:101FA000FF90EF90DF90CF90BF90AF908F907F9099
:0A1FB0006F904F903F902F9008951E
:101FBA00A2E0B0E0E3EEFFE00C949F133C014B017A
:101FCA00FA01DB0112962D913C91139714964D90CC
:101FDA005C9015978D919C9111979A838983169697
:101FEA002D903C90179737FD03C08D7F9A83898384
:101FFA0000811181228133814481558166817781F3
:10200A00FE0131965F018AE0C82ED12C7201C4010B
:10201A000E94760DE980FA80D40118962D913C91A0
:10202A00199721503109281B390B820D931DAC01D8
:10203A0060E88201C3010E941B0E9C01F3018081AA
:10204A00918190FF08C0D40112968D919C911397AB
:10205A00821793070CF4C9012296E2E10C94BB1390
:10206A000F931F93CF93DF9304E047C025B3C02F8C
:10207A00D0E081E090E0002E02C0880F991F0A94F8
:10208A00E2F78095822385BB10E028C083B3212F15
:10209A0030E090E0012E02C0959587950A94E2F708
:1020AA0080FD1BC083B390E0022E02C095958795F0
:1020BA000A94E2F780FFF6CF220F331F220F331F55
:1020CA002E593F4FCE010497F901E80FF91F80817D
:1020DA008F36B9F481E00E9404141F5F1430B0F205
:1020EA0085B3806185BB85B3806285BB85B3806417
:1020FA0085BB85B3806885BB0F5F083008F4B6CF0F
:0C210A00B3CFDF91CF911F910F9108958A
:102116006F927F928F92EF92FF920F931F93CF93BE
:10212600DF93CDB7DEB761970FB6F894DEBF0FBE6B
:10213600CDBFFE01319651E1DF011D925A95E9F7B7
:10214600A2E0B1E0BA83A9839C838B8377FF09C0A1
:102156008FE490E090936100809360008FEF9FEF93
:1021660019C03901842E7C01615071097F836E8309
:102176009801682DA301CF010E94D6134885598581
:102186002E813F814217530708F49A01F701E20FA7
:10219600F31F108261960FB6F894DEBF0FBECDBF57
:1021A600DF91CF911F910F91FF90EF908F907F90CD
:0421B6006F90089589
:1021BA0088249924F401E401B0E49F93AA279A158C
:1021CA008B049C04ED05FE05CF05D007A10798F402
:1021DA00AD2FDC2FCF2FFE2FE92D982C892E982F8B
:1021EA00872F762F652F542F432F322F2227B8504F
:1021FA0031F7BF9127C01B2EBF91BB27220F331F78
:10220A00441F551F661F771F881F991F881C991C1A
:10221A00EE1FFF1FCC1FDD1FAA1FBB1F8A149B04C2
:10222A00EC05FD05CE05DF05A007B10748F08A18C1
:10223A009B08EC09FD09CE09DF09A00BB10B21604F
:10224A001A94E1F62EF49401AF01BE01CD01000CFF
:02225A000895E5
:10225C00CF92DF92EF92DC0190E0292F30E0220F39
:10226C00331F6901032E000CEE086E2DA6014B5D89
:10227C005D4F6F4F6A01E62EFA018491E7FC808175
:10228C0081110DC02F5F3F4F032E000C440B2B5DB3
:10229C003D4F4F4FF901849147FD808124C0CD9073
:1022AC00DD90EC901297F6014491E7FC4081841389
:1022BC0015C02F5F3F4F032E000C440B2B5D3D4F81
:1022CC004F4FF901949147FD90815FEFC51AD50AE4
:1022DC00E50ACD92DD92EC92129701C09F5F9B3084
:0E22EC0008F4BBCF892FEF90DF90CF900895BC
:1022FA001F920F920FB60F9211248F93809198001C
:10230A008F5F80939800809198008D3149F4809175
:10231A0097008F5F809397001092980081E088BFA2
:10232A00809197008C3339F410929700809196002F
:10233A008F5F80939600809196008C3339F41092C7
:10234A009600809195008F5F80939500809195000B
:10235A008D3088F081E080939500809194008111FE
:10236A0004C081E08093940006C08091940081307B
:10237A0011F4109294008F910F900FBE0F901F903E
:02238A001895A4
:10238C000F931F93CF93DF93DB012D913C9111970A
:10239C0030FF25C017964D915C91189715962D918D
:1023AC003C9116974217530778F41296ED91FC91D5
:1023BC001397808312962D913C9113972F5F3F4F6B
:1023CC0013963C932E93129717962D913C91189738
:1023DC002F5F3F4F18963C932E93179715C01D9661
:1023EC00ED91FC911E97309719F48FEF9FEF0CC075
:1023FC008B01EC010995892BC1F7F8018781908538
:10240C00019690878783CE01DF91CF911F910F9119
:02241C00089521
:10241E00CF939B01482FF901849147FD8081803233
:10242E00C9F1682F082E000C770B695071096530C1
:10243E00710580F18B3249F5A0E0B0E02F5F3F4F80
:10244E004F4F02C0A0E0B0E080E090E0CAE0F9019A
:10245E00649147FD6081062E000C770B6053710965
:10246E006A30710560F4C89FF001C99FF00D112408
:10247E002F5F3F4F4F4FCF01861B970BE8CFAB2BF4
:10248E0069F491958195910909C08D32D9F6A1E033
:10249E00B0E0D4CF2F5F3F4F4F4FBDCFCF910895B8
:1024AE006F927F928F92CF92DF92EF920F931F9344
:1024BE00CF93DF938C016A01E62EE9013A01862E55
:1024CE00620E731E811C37FD8A94C614D704E8046D
:1024DE0079F0F6018491E7FC8081B801082E000C9A
:1024EE00990B0E94C6118FEFC81AD80AE80AEDCFD1
:1024FE00CE01DF91CF911F910F91EF90DF90CF9092
:08250E008F907F906F900895FB
:10251600CF92DF92EF92FF92A62F20E030E060E0AC
:1025260070E01AC0AB01440F551F660F771F660F88
:10253600771F660F771F640F751FF901EE0FFF1FD8
:10254600EE0FFF1FE80FF91FC080D180E280F380F5
:102556006C0D7D1D2F5F3F4F4A2F50E02417350726
:102566000CF3072E000C880B990BFF90EF90DF9071
:04257600CF90089565
:10257A000F931F93CF93DF93CDB7DEB7DA950FB6DC
:10258A00F894DEBF0FBECDBF9F938F9388E492E08D
:10259A00A0E0AF939F938F938E010F5F1F4F1F93FE
:1025AA000F930E943F14B80180E80E9419130FB6D6
:1025BA00F894DEBF0FBECDBFD3950FB6F894DEBF39
:0E25CA000FBECDBFDF91CF911F910F910895ED
:1025D8002AB128602AB92AB120612AB920B5206811
:1025E80020BD20B5226020BD20B5246020BDDC01BF
:1025F800CB01880F991FAA1FBB1F880F991FAA1FFD
:10260800BB1F9C01AD01220F331F441F551F220F12
:10261800331F441F551F60E072E18AE790E00E9473
:0A2628003F13215029B910BC08959A
:10263200CF92DF92EF92CF93DF936B01E82EC0E04F
:10264200D0E009C00E94181421968FEC97E0019700
:10265200F1F700C00000AE2DC6018C0F9D1FA11D19
:10266200D7FDAA95FC018491A7FD80818111EACF53
:0C267200DF91CF91EF90DF90CF900895A2
:10267E00A1E21A2EAA1BBB1BFD010DC0AA1FBB1F78
:10268E00EE1FFF1FA217B307E407F50720F0A21BEA
:10269E00B30BE40BF50B661F771F881F991F1A9457
:1026AE0069F760957095809590959B01AC01BD0181
:0426BE00CF010895AB
:1026C200FA0160387105CCF0623871051CF063388C
:1026D200710599F4A081B1819D012C5F3F4F318337
:1026E20020834D915D916D917C91FC0140835183DA
:1026F2006283738381E090E0089580E090E0089522
:1027020097FB10F8169400080F93083098F00850C1
:10271200232F342F452F562F672F782F892F902D57
:10272200F4CF059497958795779567955795479533
:0C273200379527950A95AAF70F91089596
:10273E002F923F924F925F926F927F928F929F92C3
:10274E00AF92BF92CF92DF92EF92FF920F931F93B1
:10275E00CF93DF93CDB7DEB7CA1BDB0B0FB6F89462
:08276E00DEBF0FBECDBF0994D0
:102776002A88398848885F846E847D848C849B840B
:10278600AA84B984C884DF80EE80FD800C811B8119
:10279600AA81B981CE0FD11D0FB6F894DEBF0FBE48
:0627A600CDBFED01089516
:1027AC00A2E0B0E0ECEDF3E10C94AD138C013A83B4
:1027BC0029839E012F5F3F4F0E944E05F801208117
:1027CC0024FF02C08FEF9FEF2296E4E00C94C91314
:1027DC00CF92DF92EF926B01E82EA82FCB01FC0178
:1027EC002491A7FD2081222319F00196A11DF7CF7A
:0C27FC008C199D09EF90DF90CF9008959C
:102808009BB39E7F9BBB9BB39D7F9BBB88BB8BB3BE
:1028180084608BBB8FEC97E00197F1F700C0000054
:082828008BB38B7F8BBB08957D
:102830009BB391609BBB9BB39D7F9BBB88BB8BB3C2
:1028400084608BBB8FEC97E00197F1F700C000002C
:082850008BB38B7F8BBB089555
:102858008FEF8ABB87BB88E30E9404148CE00E9438
:10286800041486E00E94041481E00E94041480E8A5
:062878000E940414089503
:10287E00A0E0B0E0E5E4F4E10C94AF139E01265F16
:10288E003F4F4F81588569858D819E810E94991495
:06289E00E2E00C94CB13F4
:1028A40060957095809590953095409550952195BB
:1028B4003F4F4F4F5F4F6F4F7F4F8F4F9F4F089545
:1028C40081B3846081BB82B3846082BB8BB7806434
:0C28D4008BBF85B7826085BF78940895A3
:1028E0006150813021F0823021F080E003C080E827
:0C28F00001C080EC860F0E9404140895C3
:1028FC00689401C0E8948F929F92CF93DF930E94CB
:0C290C00DD10DF91CF919F908F90089517
:10291800992777FD05C005900D920197E1F7089575
:0A29280001900D920197E1F7089568
:102932000F931F9389019A01462F6FEF7FE70E9441
:082942008B101F910F91089505
:10294A000024A7FD00942A173005400550056005AC
:08295A00700580059005089549
:10296200EC010E94F1140E94F014CE010E94F214B4
:06297200CE010E94EE14EC
:1029780083B7856083BF81E082BF789489B781601F
:0429880089BF089566
:10298C00FC01480F591FE417F50711F06193FBCFB9
:02299C0008959C
:10299E009C01215631092A31310510F48F75992782
:0229AE0008958A
:1029B0009C01215431092A31310508F480620895BF
:0A29C00080EF84BB8FEF85BB089504
:0829CA005D9BFECF8CB908955E
:0629D20080E090E0089592
:0429D8000C9400005B
:0429DC000E946A00EB
:0229E000089558
:0229E200089556
:0229E400089554
:1029E6000708092F040506780102032D6F003D2B09
:0829F6000200000004000000D3
:0629FE001F02002202008E
:042A040013060000B5
:012A08003B92
:00000001FF
